{
  "contractName": "ItemManager",
  "abi": [
    {
      "anonymous": false,
      "inputs": [
        {
          "indexed": false,
          "internalType": "uint256",
          "name": "_itemIndex",
          "type": "uint256"
        },
        {
          "indexed": false,
          "internalType": "uint256",
          "name": "_step",
          "type": "uint256"
        },
        {
          "indexed": false,
          "internalType": "address",
          "name": "_itemAddress",
          "type": "address"
        }
      ],
      "name": "SupplyChainStep",
      "type": "event"
    },
    {
      "inputs": [
        {
          "internalType": "uint256",
          "name": "",
          "type": "uint256"
        }
      ],
      "name": "evaluatori",
      "outputs": [
        {
          "internalType": "string",
          "name": "_name",
          "type": "string"
        },
        {
          "internalType": "uint256",
          "name": "_reputation",
          "type": "uint256"
        },
        {
          "internalType": "string",
          "name": "_category",
          "type": "string"
        }
      ],
      "stateMutability": "view",
      "type": "function",
      "constant": true
    },
    {
      "inputs": [
        {
          "internalType": "uint256",
          "name": "",
          "type": "uint256"
        }
      ],
      "name": "finantatori",
      "outputs": [
        {
          "internalType": "string",
          "name": "_name",
          "type": "string"
        },
        {
          "internalType": "uint256",
          "name": "_reputation",
          "type": "uint256"
        }
      ],
      "stateMutability": "view",
      "type": "function",
      "constant": true
    },
    {
      "inputs": [
        {
          "internalType": "uint256",
          "name": "",
          "type": "uint256"
        }
      ],
      "name": "freelancers",
      "outputs": [
        {
          "internalType": "string",
          "name": "_name",
          "type": "string"
        },
        {
          "internalType": "uint256",
          "name": "_reputation",
          "type": "uint256"
        },
        {
          "internalType": "string",
          "name": "_category",
          "type": "string"
        }
      ],
      "stateMutability": "view",
      "type": "function",
      "constant": true
    },
    {
      "inputs": [],
      "name": "isOwner",
      "outputs": [
        {
          "internalType": "bool",
          "name": "",
          "type": "bool"
        }
      ],
      "stateMutability": "view",
      "type": "function",
      "constant": true
    },
    {
      "inputs": [
        {
          "internalType": "uint256",
          "name": "",
          "type": "uint256"
        }
      ],
      "name": "items",
      "outputs": [
        {
          "internalType": "contract Item",
          "name": "_item",
          "type": "address"
        },
        {
          "internalType": "string",
          "name": "_identifier",
          "type": "string"
        },
        {
          "internalType": "uint256",
          "name": "_DEV",
          "type": "uint256"
        },
        {
          "internalType": "uint256",
          "name": "_REV",
          "type": "uint256"
        },
        {
          "internalType": "string",
          "name": "_domain",
          "type": "string"
        },
        {
          "internalType": "string",
          "name": "_manager",
          "type": "string"
        },
        {
          "internalType": "string",
          "name": "_description",
          "type": "string"
        },
        {
          "internalType": "enum ItemManager.SupplyChainState",
          "name": "_state",
          "type": "uint8"
        },
        {
          "internalType": "uint256",
          "name": "_itemPrice",
          "type": "uint256"
        }
      ],
      "stateMutability": "view",
      "type": "function",
      "constant": true
    },
    {
      "inputs": [],
      "name": "manager",
      "outputs": [
        {
          "internalType": "string",
          "name": "_name",
          "type": "string"
        },
        {
          "internalType": "uint256",
          "name": "_reputation",
          "type": "uint256"
        }
      ],
      "stateMutability": "view",
      "type": "function",
      "constant": true
    },
    {
      "inputs": [
        {
          "internalType": "string",
          "name": "_identifier",
          "type": "string"
        },
        {
          "internalType": "uint256",
          "name": "_DEV",
          "type": "uint256"
        },
        {
          "internalType": "uint256",
          "name": "_REV",
          "type": "uint256"
        },
        {
          "internalType": "string",
          "name": "_domain",
          "type": "string"
        },
        {
          "internalType": "string",
          "name": "_manager",
          "type": "string"
        },
        {
          "internalType": "string",
          "name": "_description",
          "type": "string"
        }
      ],
      "name": "createItem",
      "outputs": [],
      "stateMutability": "nonpayable",
      "type": "function"
    },
    {
      "inputs": [
        {
          "internalType": "string",
          "name": "_name",
          "type": "string"
        },
        {
          "internalType": "uint256",
          "name": "_reputation",
          "type": "uint256"
        }
      ],
      "name": "createManager",
      "outputs": [],
      "stateMutability": "nonpayable",
      "type": "function"
    },
    {
      "inputs": [
        {
          "internalType": "string",
          "name": "_name",
          "type": "string"
        },
        {
          "internalType": "uint256",
          "name": "_reputation",
          "type": "uint256"
        }
      ],
      "name": "createFinantator",
      "outputs": [],
      "stateMutability": "nonpayable",
      "type": "function"
    },
    {
      "inputs": [
        {
          "internalType": "string",
          "name": "_name",
          "type": "string"
        },
        {
          "internalType": "uint256",
          "name": "_reputation",
          "type": "uint256"
        },
        {
          "internalType": "string",
          "name": "_category",
          "type": "string"
        }
      ],
      "name": "createFreelancer",
      "outputs": [],
      "stateMutability": "nonpayable",
      "type": "function"
    },
    {
      "inputs": [
        {
          "internalType": "string",
          "name": "_name",
          "type": "string"
        },
        {
          "internalType": "uint256",
          "name": "_reputation",
          "type": "uint256"
        },
        {
          "internalType": "string",
          "name": "_category",
          "type": "string"
        }
      ],
      "name": "createEvaluator",
      "outputs": [],
      "stateMutability": "nonpayable",
      "type": "function"
    },
    {
      "inputs": [
        {
          "internalType": "uint256",
          "name": "_itemIndex",
          "type": "uint256"
        }
      ],
      "name": "triggerPayment",
      "outputs": [],
      "stateMutability": "payable",
      "type": "function",
      "payable": true
    },
    {
      "inputs": [
        {
          "internalType": "uint256",
          "name": "_itemIndex",
          "type": "uint256"
        }
      ],
      "name": "triggerDelivery",
      "outputs": [],
      "stateMutability": "nonpayable",
      "type": "function"
    }
  ],
  "bytecode": "0x6080604052336000806101000a81548173ffffffffffffffffffffffffffffffffffffffff021916908373ffffffffffffffffffffffffffffffffffffffff1602179055506127b0806100536000396000f3fe6080604052600436106100c25760003560e01c80636c39d0271161007f578063bfb231d211610059578063bfb231d21461087f578063cd31831e14610ad4578063d109d76f14610b0f578063e7beb74614610db0576100c2565b80636c39d02714610750578063800fb83f146108225780638f32d59b14610850576100c2565b80630b1d4f81146100c75780630b9364d8146101995780630e06e0bc146102c05780631a00ae9f146104295780631a84916f14610550578063481c6a75146106b9575b600080fd5b3480156100d357600080fd5b50610197600480360360408110156100ea57600080fd5b810190808035906020019064010000000081111561010757600080fd5b82018360208201111561011957600080fd5b8035906020019184600183028401116401000000008311171561013b57600080fd5b91908080601f016020809104026020016040519081016040528093929190818152602001838380828437600081840152601f19601f82011690508083019250505050505050919291929080359060200190929190505050610e6b565b005b3480156101a557600080fd5b506101d2600480360360208110156101bc57600080fd5b8101908080359060200190929190505050610f74565b604051808060200184815260200180602001838103835286818151815260200191508051906020019080838360005b8381101561021c578082015181840152602081019050610201565b50505050905090810190601f1680156102495780820380516001836020036101000a031916815260200191505b50838103825284818151815260200191508051906020019080838360005b83811015610282578082015181840152602081019050610267565b50505050905090810190601f1680156102af5780820380516001836020036101000a031916815260200191505b509550505050505060405180910390f35b3480156102cc57600080fd5b50610427600480360360608110156102e357600080fd5b810190808035906020019064010000000081111561030057600080fd5b82018360208201111561031257600080fd5b8035906020019184600183028401116401000000008311171561033457600080fd5b91908080601f016020809104026020016040519081016040528093929190818152602001838380828437600081840152601f19601f82011690508083019250505050505050919291929080359060200190929190803590602001906401000000008111156103a157600080fd5b8201836020820111156103b357600080fd5b803590602001918460018302840111640100000000831117156103d557600080fd5b91908080601f016020809104026020016040519081016040528093929190818152602001838380828437600081840152601f19601f8201169050808301925050505050505091929192905050506110ce565b005b34801561043557600080fd5b506104626004803603602081101561044c57600080fd5b810190808035906020019092919050505061123d565b604051808060200184815260200180602001838103835286818151815260200191508051906020019080838360005b838110156104ac578082015181840152602081019050610491565b50505050905090810190601f1680156104d95780820380516001836020036101000a031916815260200191505b50838103825284818151815260200191508051906020019080838360005b838110156105125780820151818401526020810190506104f7565b50505050905090810190601f16801561053f5780820380516001836020036101000a031916815260200191505b509550505050505060405180910390f35b34801561055c57600080fd5b506106b76004803603606081101561057357600080fd5b810190808035906020019064010000000081111561059057600080fd5b8201836020820111156105a257600080fd5b803590602001918460018302840111640100000000831117156105c457600080fd5b91908080601f016020809104026020016040519081016040528093929190818152602001838380828437600081840152601f19601f820116905080830192505050505050509192919290803590602001909291908035906020019064010000000081111561063157600080fd5b82018360208201111561064357600080fd5b8035906020019184600183028401116401000000008311171561066557600080fd5b91908080601f016020809104026020016040519081016040528093929190818152602001838380828437600081840152601f19601f820116905080830192505050505050509192919290505050611397565b005b3480156106c557600080fd5b506106ce611506565b6040518080602001838152602001828103825284818151815260200191508051906020019080838360005b838110156107145780820151818401526020810190506106f9565b50505050905090810190601f1680156107415780820380516001836020036101000a031916815260200191505b50935050505060405180910390f35b34801561075c57600080fd5b506108206004803603604081101561077357600080fd5b810190808035906020019064010000000081111561079057600080fd5b8201836020820111156107a257600080fd5b803590602001918460018302840111640100000000831117156107c457600080fd5b91908080601f016020809104026020016040519081016040528093929190818152602001838380828437600081840152601f19601f820116905080830192505050505050509192919290803590602001909291905050506115b0565b005b61084e6004803603602081101561083857600080fd5b81019080803590602001909291905050506116f1565b005b34801561085c57600080fd5b506108656119b6565b604051808215151515815260200191505060405180910390f35b34801561088b57600080fd5b506108b8600480360360208110156108a257600080fd5b8101908080359060200190929190505050611a0d565b604051808a73ffffffffffffffffffffffffffffffffffffffff1673ffffffffffffffffffffffffffffffffffffffff1681526020018060200189815260200188815260200180602001806020018060200187600281111561091657fe5b60ff16815260200186815260200185810385528d818151815260200191508051906020019080838360005b8381101561095c578082015181840152602081019050610941565b50505050905090810190601f1680156109895780820380516001836020036101000a031916815260200191505b5085810384528a818151815260200191508051906020019080838360005b838110156109c25780820151818401526020810190506109a7565b50505050905090810190601f1680156109ef5780820380516001836020036101000a031916815260200191505b50858103835289818151815260200191508051906020019080838360005b83811015610a28578082015181840152602081019050610a0d565b50505050905090810190601f168015610a555780820380516001836020036101000a031916815260200191505b50858103825288818151815260200191508051906020019080838360005b83811015610a8e578082015181840152602081019050610a73565b50505050905090810190601f168015610abb5780820380516001836020036101000a031916815260200191505b509d505050505050505050505050505060405180910390f35b348015610ae057600080fd5b50610b0d60048036036020811015610af757600080fd5b8101908080359060200190929190505050611ce8565b005b348015610b1b57600080fd5b50610dae600480360360c0811015610b3257600080fd5b8101908080359060200190640100000000811115610b4f57600080fd5b820183602082011115610b6157600080fd5b80359060200191846001830284011164010000000083111715610b8357600080fd5b91908080601f016020809104026020016040519081016040528093929190818152602001838380828437600081840152601f19601f820116905080830192505050505050509192919290803590602001909291908035906020019092919080359060200190640100000000811115610bfa57600080fd5b820183602082011115610c0c57600080fd5b80359060200191846001830284011164010000000083111715610c2e57600080fd5b91908080601f016020809104026020016040519081016040528093929190818152602001838380828437600081840152601f19601f82011690508083019250505050505050919291929080359060200190640100000000811115610c9157600080fd5b820183602082011115610ca357600080fd5b80359060200191846001830284011164010000000083111715610cc557600080fd5b91908080601f016020809104026020016040519081016040528093929190818152602001838380828437600081840152601f19601f82011690508083019250505050505050919291929080359060200190640100000000811115610d2857600080fd5b820183602082011115610d3a57600080fd5b80359060200191846001830284011164010000000083111715610d5c57600080fd5b91908080601f016020809104026020016040519081016040528093929190818152602001838380828437600081840152601f19601f820116905080830192505050505050509192919290505050611f23565b005b348015610dbc57600080fd5b50610de960048036036020811015610dd357600080fd5b81019080803590602001909291905050506122a7565b6040518080602001838152602001828103825284818151815260200191508051906020019080838360005b83811015610e2f578082015181840152602081019050610e14565b50505050905090810190601f168015610e5c5780820380516001836020036101000a031916815260200191505b50935050505060405180910390f35b610e736119b6565b610ee5576040517f08c379a00000000000000000000000000000000000000000000000000000000081526004018080602001828103825260158152602001807f596f7520617265206e6f7420746865206f776e6572000000000000000000000081525060200191505060405180910390fd5b8160036000019080519060200190610efe929190612363565b5060008110158015610f115750600a8111155b610f66576040517f08c379a00000000000000000000000000000000000000000000000000000000081526004018080602001828103825260238152602001806127586023913960400191505060405180910390fd5b806003600101819055505050565b6007602052806000526040600020600091509050806000018054600181600116156101000203166002900480601f0160208091040260200160405190810160405280929190818152602001828054600181600116156101000203166002900480156110205780601f10610ff557610100808354040283529160200191611020565b820191906000526020600020905b81548152906001019060200180831161100357829003601f168201915b505050505090806001015490806002018054600181600116156101000203166002900480601f0160208091040260200160405190810160405280929190818152602001828054600181600116156101000203166002900480156110c45780601f10611099576101008083540402835291602001916110c4565b820191906000526020600020905b8154815290600101906020018083116110a757829003601f168201915b5050505050905083565b6110d66119b6565b611148576040517f08c379a00000000000000000000000000000000000000000000000000000000081526004018080602001828103825260158152602001807f596f7520617265206e6f7420746865206f776e6572000000000000000000000081525060200191505060405180910390fd5b8260096000600a5481526020019081526020016000206000019080519060200190611174929190612363565b50600082101580156111875750600a8211155b6111dc576040517f08c379a00000000000000000000000000000000000000000000000000000000081526004018080602001828103825260238152602001806127586023913960400191505060405180910390fd5b8160096000600a548152602001908152602001600020600101819055508060096000600a5481526020019081526020016000206002019080519060200190611225929190612363565b50600a60008154809291906001019190505550505050565b6009602052806000526040600020600091509050806000018054600181600116156101000203166002900480601f0160208091040260200160405190810160405280929190818152602001828054600181600116156101000203166002900480156112e95780601f106112be576101008083540402835291602001916112e9565b820191906000526020600020905b8154815290600101906020018083116112cc57829003601f168201915b505050505090806001015490806002018054600181600116156101000203166002900480601f01602080910402602001604051908101604052809291908181526020018280546001816001161561010002031660029004801561138d5780601f106113625761010080835404028352916020019161138d565b820191906000526020600020905b81548152906001019060200180831161137057829003601f168201915b5050505050905083565b61139f6119b6565b611411576040517f08c379a00000000000000000000000000000000000000000000000000000000081526004018080602001828103825260158152602001807f596f7520617265206e6f7420746865206f776e6572000000000000000000000081525060200191505060405180910390fd5b82600760006008548152602001908152602001600020600001908051906020019061143d929190612363565b50600082101580156114505750600a8211155b6114a5576040517f08c379a00000000000000000000000000000000000000000000000000000000081526004018080602001828103825260238152602001806127586023913960400191505060405180910390fd5b81600760006008548152602001908152602001600020600101819055508060076000600854815260200190815260200160002060020190805190602001906114ee929190612363565b50600860008154809291906001019190505550505050565b6003806000018054600181600116156101000203166002900480601f0160208091040260200160405190810160405280929190818152602001828054600181600116156101000203166002900480156115a05780601f10611575576101008083540402835291602001916115a0565b820191906000526020600020905b81548152906001019060200180831161158357829003601f168201915b5050505050908060010154905082565b6115b86119b6565b61162a576040517f08c379a00000000000000000000000000000000000000000000000000000000081526004018080602001828103825260158152602001807f596f7520617265206e6f7420746865206f776e6572000000000000000000000081525060200191505060405180910390fd5b816005600060065481526020019081526020016000206000019080519060200190611656929190612363565b50600081101580156116695750600a8111155b6116be576040517f08c379a00000000000000000000000000000000000000000000000000000000081526004018080602001828103825260238152602001806127586023913960400191505060405180910390fd5b80600560006006548152602001908152602001600020600101819055506006600081548092919060010191905055505050565b6116f96119b6565b61176b576040517f08c379a00000000000000000000000000000000000000000000000000000000081526004018080602001828103825260158152602001807f596f7520617265206e6f7420746865206f776e6572000000000000000000000081525060200191505060405180910390fd5b346001600083815260200190815260200160002060080154146117f6576040517f08c379a000000000000000000000000000000000000000000000000000000000815260040180806020018281038252601b8152602001807f4f6e6c792066756c6c207061796d656e7473206163636570746564000000000081525060200191505060405180910390fd5b6000600281111561180357fe5b6001600083815260200190815260200160002060070160009054906101000a900460ff16600281111561183257fe5b146118a5576040517f08c379a00000000000000000000000000000000000000000000000000000000081526004018080602001828103825260148152602001807f4974656d20697320696e2074686520636861696e00000000000000000000000081525060200191505060405180910390fd5b600180600083815260200190815260200160002060070160006101000a81548160ff021916908360028111156118d757fe5b02179055507fa4035636e99f06b7651a604c1019fa4e8779fe68ef27eeb74dff2de348f6199b816001600084815260200190815260200160002060070160009054906101000a900460ff16600281111561192d57fe5b6001600085815260200190815260200160002060000160009054906101000a900473ffffffffffffffffffffffffffffffffffffffff16604051808481526020018381526020018273ffffffffffffffffffffffffffffffffffffffff1673ffffffffffffffffffffffffffffffffffffffff168152602001935050505060405180910390a150565b60008060009054906101000a900473ffffffffffffffffffffffffffffffffffffffff1673ffffffffffffffffffffffffffffffffffffffff163373ffffffffffffffffffffffffffffffffffffffff1614905090565b60016020528060005260406000206000915090508060000160009054906101000a900473ffffffffffffffffffffffffffffffffffffffff1690806001018054600181600116156101000203166002900480601f016020809104026020016040519081016040528092919081815260200182805460018160011615610100020316600290048015611adf5780601f10611ab457610100808354040283529160200191611adf565b820191906000526020600020905b815481529060010190602001808311611ac257829003601f168201915b505050505090806002015490806003015490806004018054600181600116156101000203166002900480601f016020809104026020016040519081016040528092919081815260200182805460018160011615610100020316600290048015611b895780601f10611b5e57610100808354040283529160200191611b89565b820191906000526020600020905b815481529060010190602001808311611b6c57829003601f168201915b505050505090806005018054600181600116156101000203166002900480601f016020809104026020016040519081016040528092919081815260200182805460018160011615610100020316600290048015611c275780601f10611bfc57610100808354040283529160200191611c27565b820191906000526020600020905b815481529060010190602001808311611c0a57829003601f168201915b505050505090806006018054600181600116156101000203166002900480601f016020809104026020016040519081016040528092919081815260200182805460018160011615610100020316600290048015611cc55780601f10611c9a57610100808354040283529160200191611cc5565b820191906000526020600020905b815481529060010190602001808311611ca857829003601f168201915b5050505050908060070160009054906101000a900460ff16908060080154905089565b611cf06119b6565b611d62576040517f08c379a00000000000000000000000000000000000000000000000000000000081526004018080602001828103825260158152602001807f596f7520617265206e6f7420746865206f776e6572000000000000000000000081525060200191505060405180910390fd5b60016002811115611d6f57fe5b6001600083815260200190815260200160002060070160009054906101000a900460ff166002811115611d9e57fe5b14611e11576040517f08c379a00000000000000000000000000000000000000000000000000000000081526004018080602001828103825260148152602001807f4974656d20697320696e2074686520636861696e00000000000000000000000081525060200191505060405180910390fd5b60026001600083815260200190815260200160002060070160006101000a81548160ff02191690836002811115611e4457fe5b02179055507fa4035636e99f06b7651a604c1019fa4e8779fe68ef27eeb74dff2de348f6199b816001600084815260200190815260200160002060070160009054906101000a900460ff166002811115611e9a57fe5b6001600085815260200190815260200160002060000160009054906101000a900473ffffffffffffffffffffffffffffffffffffffff16604051808481526020018381526020018273ffffffffffffffffffffffffffffffffffffffff1673ffffffffffffffffffffffffffffffffffffffff168152602001935050505060405180910390a150565b611f2b6119b6565b611f9d576040517f08c379a00000000000000000000000000000000000000000000000000000000081526004018080602001828103825260158152602001807f596f7520617265206e6f7420746865206f776e6572000000000000000000000081525060200191505060405180910390fd5b6000600160006002548152602001908152602001600020600301546001600060025481526020019081526020016000206002015401905060003082600254604051611fe7906123e3565b808473ffffffffffffffffffffffffffffffffffffffff1673ffffffffffffffffffffffffffffffffffffffff1681526020018381526020018281526020019350505050604051809103906000f080158015612047573d6000803e3d6000fd5b5090508060016000600254815260200190815260200160002060000160006101000a81548173ffffffffffffffffffffffffffffffffffffffff021916908373ffffffffffffffffffffffffffffffffffffffff16021790555081600160006002548152602001908152602001600020600801819055508760016000600254815260200190815260200160002060010190805190602001906120ea929190612363565b5086600160006002548152602001908152602001600020600201819055508560016000600254815260200190815260200160002060030181905550846001600060025481526020019081526020016000206004019080519060200190612151929190612363565b5083600160006002548152602001908152602001600020600501908051906020019061217e929190612363565b508260016000600254815260200190815260200160002060060190805190602001906121ab929190612363565b50600060016000600254815260200190815260200160002060070160006101000a81548160ff021916908360028111156121e157fe5b02179055507fa4035636e99f06b7651a604c1019fa4e8779fe68ef27eeb74dff2de348f6199b60025460016000600254815260200190815260200160002060070160009054906101000a900460ff16600281111561223b57fe5b83604051808481526020018381526020018273ffffffffffffffffffffffffffffffffffffffff1673ffffffffffffffffffffffffffffffffffffffff168152602001935050505060405180910390a16002600081548092919060010191905055505050505050505050565b6005602052806000526040600020600091509050806000018054600181600116156101000203166002900480601f0160208091040260200160405190810160405280929190818152602001828054600181600116156101000203166002900480156123535780601f1061232857610100808354040283529160200191612353565b820191906000526020600020905b81548152906001019060200180831161233657829003601f168201915b5050505050908060010154905082565b828054600181600116156101000203166002900490600052602060002090601f016020900481019282601f106123a457805160ff19168380011785556123d2565b828001600101855582156123d2579182015b828111156123d15782518255916020019190600101906123b6565b5b5090506123df91906123f0565b5090565b6103428061241683390190565b61241291905b8082111561240e5760008160009055506001016123f6565b5090565b9056fe608060405234801561001057600080fd5b506040516103423803806103428339818101604052606081101561003357600080fd5b810190808051906020019092919080519060200190929190805190602001909291905050506000546000819055508060018190555082600360006101000a81548173ffffffffffffffffffffffffffffffffffffffff021916908373ffffffffffffffffffffffffffffffffffffffff160217905550505050610287806100bb6000396000f3fe6080604052600436106100385760003560e01c80632986c0e5146101be5780633c8da588146101e957806389794d0014610214576101af565b366101af576000600254146100b5576040517f08c379a00000000000000000000000000000000000000000000000000000000081526004018080602001828103825260148152602001807f4974656d206973207061696420616c726561647900000000000000000000000081525060200191505060405180910390fd5b6002546000541461012e576040517f08c379a000000000000000000000000000000000000000000000000000000000815260040180806020018281038252601a8152602001807f4f6e6c792066756c6c207061796d656e747320616c6c6f77656400000000000081525060200191505060405180910390fd5b346002600082825401925050819055506000600360009054906101000a900473ffffffffffffffffffffffffffffffffffffffff1690508073ffffffffffffffffffffffffffffffffffffffff166108fc349081150290604051600060405180830381858888f193505050501580156101ab573d6000803e3d6000fd5b5050005b3480156101bb57600080fd5b50005b3480156101ca57600080fd5b506101d361023f565b6040518082815260200191505060405180910390f35b3480156101f557600080fd5b506101fe610245565b6040518082815260200191505060405180910390f35b34801561022057600080fd5b5061022961024b565b6040518082815260200191505060405180910390f35b60015481565b60005481565b6002548156fea26469706673582212207b00b960b7d9260a86c3abc6b18310f9be095d6262ad0bd836a6a6ba90ad53a664736f6c6343000601003352657075746174696f6e206d757374206265206265747765656e203020616e64203130a2646970667358221220fd546a897273a6293e8a2bcb7f6b05b1a3b77ebb41b3bb38f15fda53cdcfb52b64736f6c63430006010033",
  "source": "pragma solidity >=0.6.0;\r\n\r\nimport \"./Ownable.sol\";\r\nimport \"./Item.sol\";\r\ncontract ItemManager is Ownable{\r\n    \r\n    enum SupplyChainState {Created, Paid, Delivered}\r\n    \r\n    struct S_Product{\r\n        Item _item;\r\n        string _identifier;\r\n        uint _DEV;\r\n        uint _REV;\r\n        string _domain;\r\n        string _manager;\r\n        string _description;\r\n        ItemManager.SupplyChainState _state;\r\n        uint _itemPrice;\r\n    }\r\n    \r\n    struct Manager{\r\n         string _name;\r\n         uint _reputation;\r\n    }\r\n    \r\n     struct Finantator{\r\n         string _name;\r\n         uint _reputation;\r\n    }\r\n    \r\n    struct Freelancer{\r\n         string _name;\r\n         uint _reputation;\r\n         string _category;\r\n    }\r\n    \r\n     struct Evaluator{\r\n         string _name;\r\n         uint _reputation;\r\n         string _category;\r\n    }\r\n    \r\n    mapping( uint => S_Product) public items;\r\n    uint itemIndex;\r\n    \r\n    Manager public manager;\r\n    mapping (uint => Finantator) public finantatori;\r\n    uint indexFinantator;\r\n    mapping (uint => Freelancer) public freelancers;\r\n    uint indexFreelancer;\r\n    mapping (uint => Evaluator) public evaluatori;\r\n    uint indexEvaluator;\r\n    \r\n    event SupplyChainStep(uint _itemIndex, uint _step, address _itemAddress);\r\n    //event createdElement(string _elementName,uint _elementIndex);\r\n    function createItem(string memory _identifier, uint _DEV, uint _REV, string memory _domain, string memory _manager, string memory _description) public onlyOwner{\r\n        uint _itemPrice=items[itemIndex]._DEV+items[itemIndex]._REV;\r\n        \r\n        Item item = new Item(this,_itemPrice,itemIndex);\r\n        items[itemIndex]._item=item;\r\n        items[itemIndex]._itemPrice=_itemPrice;\r\n        \r\n        items[itemIndex]._identifier=_identifier;\r\n        items[itemIndex]._DEV=_DEV;\r\n        items[itemIndex]._REV=_REV;\r\n        items[itemIndex]._domain=_domain;\r\n        items[itemIndex]._manager=_manager;\r\n        items[itemIndex]._description=_description;\r\n        items[itemIndex]._state= SupplyChainState.Created;\r\n       \r\n        \r\n        emit SupplyChainStep(itemIndex,uint(items[itemIndex]._state), address(item));\r\n        itemIndex++;\r\n    }\r\n    \r\n    function createManager(string memory _name, uint _reputation) public onlyOwner{\r\n        manager._name=_name;\r\n        require(_reputation>=0 && _reputation<=10, \"Reputation must be between 0 and 10\");\r\n        manager._reputation=_reputation;\r\n        //emit createdElement(manager._name,0);\r\n    }\r\n    \r\n    function createFinantator(string memory _name, uint _reputation)public onlyOwner{\r\n        finantatori[indexFinantator]._name=_name;\r\n        require(_reputation>=0 && _reputation<=10, \"Reputation must be between 0 and 10\");\r\n        finantatori[indexFinantator]._reputation=_reputation;\r\n        indexFinantator++;\r\n    }\r\n    \r\n    function createFreelancer(string memory _name, uint _reputation, string memory _category)public onlyOwner{\r\n        freelancers[indexFreelancer]._name=_name;\r\n        require(_reputation>=0 && _reputation<=10, \"Reputation must be between 0 and 10\");\r\n        freelancers[indexFreelancer]._reputation=_reputation;\r\n        freelancers[indexFreelancer]._category=_category;\r\n        indexFreelancer++;\r\n    }\r\n    \r\n     function createEvaluator(string memory _name, uint _reputation, string memory _category)public onlyOwner{\r\n        evaluatori[indexEvaluator]._name=_name;\r\n        require(_reputation>=0 && _reputation<=10, \"Reputation must be between 0 and 10\");\r\n        evaluatori[indexEvaluator]._reputation=_reputation;\r\n        evaluatori[indexEvaluator]._category=_category;\r\n        indexEvaluator++;\r\n    }\r\n    \r\n    \r\n    function triggerPayment(uint _itemIndex) public payable onlyOwner{\r\n        require(items[_itemIndex]._itemPrice == msg.value, \"Only full payments accepted\");\r\n        require(items[_itemIndex]._state == SupplyChainState.Created, \"Item is in the chain\");\r\n        items[_itemIndex]._state = SupplyChainState.Paid;\r\n        \r\n        emit SupplyChainStep(_itemIndex,uint(items[_itemIndex]._state), address(items[_itemIndex]._item));\r\n    }\r\n    \r\n    function triggerDelivery(uint _itemIndex) public onlyOwner{\r\n        require(items[_itemIndex]._state == SupplyChainState.Paid, \"Item is in the chain\");\r\n        items[_itemIndex]._state = SupplyChainState.Delivered;\r\n        \r\n        emit SupplyChainStep(_itemIndex,uint(items[_itemIndex]._state), address(items[_itemIndex]._item));\r\n    }\r\n}",
  "sourcePath": "C:\\Users\\Dorina\\blockchain\\contracts\\ItemManager.sol",
  "compiler": {
    "name": "solc",
    "version": "0.6.1+commit.e6f7d5a4.Emscripten.clang"
  },
  "schemaVersion": "3.0.20",
  "updatedAt": "2021-01-27T14:37:20.773Z",
  "networkType": "ethereum",
  "devdoc": {
    "methods": {}
  },
  "userdoc": {
    "methods": {}
  }
}